:020000040800F2
:1000000090040020C1010008730D0008C90C00080D
:10001000710D0008CD020008610F0008000000000B
:10002000000000000000000000000000770D000844
:10003000CF02000800000000750D0008790D0008CF
:10004000DB010008DB010008DB010008DB01000820
:10005000DB010008DB010008DB010008DB01000810
:10006000DB010008DB010008DB010008DB01000800
:10007000DB010008DB010008DB010008DB010008F0
:10008000DB010008DB010008DB010008DB010008E0
:10009000DB010008DB010008DB010008DB010008D0
:1000A000DB010008DB010008DB010008DB010008C0
:1000B000DB010008DB010008DB010008DB010008B0
:1000C000DB010008DB010008DB010008DB010008A0
:1000D000DB010008DB010008DB010008DB01000890
:1000E000DB010008DB010008DB010008DB01000880
:1000F000DB010008DB010008DB010008DB01000870
:10010000DB010008DB010008DB010008DB0100085F
:10011000DB010008DB010008DB010008DB0100084F
:10012000DB010008DB010008DB010008DB0100083F
:10013000DB010008DB010008DB010008DB0100082F
:10014000DB010008DB010008DB010008DB0100081F
:10015000DB010008DB010008DB010008DB0100080F
:10016000DB010008DB010008DB010008DB010008FF
:10017000DB010008DB010008DB01000800000000D3
:10018000DB010008DB010008DB010008DB010008DF
:10019000DB010008DB010008DB010008DB010008CF
:1001A000DB010008DB010008DB010008DFF80CD0F0
:1001B00000F07AF800480047A10F000890040020E2
:1001C0000648804706480047FEE7FEE7FEE7FEE7F1
:1001D000FEE7FEE7FEE7FEE7FEE7FEE71D0E00088E
:1001E000AD0100082DE9F05F0546002092469B46D0
:1001F00088460646814640241BE02846414647463D
:10020000224600F041F853465A46C01A914110D395
:1002100011461846224600F028F82D1A67EB01080F
:100220004F4622460120002100F01FF817EB00097D
:100230004E41201EA4F10104DFDC484631462A4627
:100240004346BDE8F09FD2B201E000F8012B491E01
:10025000FBD270470022F6E710B513460A46044663
:100260001946FFF7F0FF204610BD202A04DB203A94
:1002700000FA02F1002070479140C2F1200320FAF9
:1002800003F3194390407047202A04DB203A21FAF7
:1002900002F00021704721FA02F3D040C2F120029F
:1002A0009140084319467047064C074D06E0E06848
:1002B00040F0010394E8070098471034AC42F6D3AD
:1002C000FFF778FF4C1000086C100008FEE770473D
:1002D00070B5044600F002F90546601C02D00448DF
:1002E0000078044400F0FAF8401BA042FAD370BD35
:1002F000000000202DE9F84F00224FF001080325EF
:100300004FF00F0E0B6808FA02F42340A3426ED19F
:100310004E68012E05D0022E03D0112E01D0122ED0
:1003200012D186684FEA420C05FA0CF7BE43CF683B
:1003300007FA0CF7374387604668A6430C79C4F385
:100340000014944034434460C668570005FA07FC23
:100350008C6826EA0C06BC403443C4604C68022C0E
:1003600001D0122C13D1D40800EB8404A346D4F896
:10037000209054074FEAD46A0EFA0AF629EA0609D1
:100380000E6906FA0AF646EA0906CBF82060046808
:100390000E7924EA0C0406F00306BE4026430660EC
:1003A0004C68E4006FD53B4C266846F480462660D6
:1003B000246822F0030604F480440094364C34444C
:1003C000A446D4F808489607360F0EFA06F7BC4341
:1003D000324FB84201D100272EE0314FB84201D14F
:1003E000012729E02F4FB84202D1022724E04AE03A
:1003F0002D4FB84201D103271EE02C4FB84201D146
:10040000042719E02A4FB84201D1052714E0294FEB
:10041000B84201D106270FE0274FB84201D1072784
:100420000AE0264FB84201D1082705E0244FB84220
:1004300001D1092700E00A27B7402743CCF8087804
:10044000204E34684F689C43FF0300D51C43346042
:100450001C4E361D34684F689C43BF0300D51C43B7
:100460003460184E083634684F689C43FF0200D54C
:100470001C433460134E0C3634684F689C43BF02F3
:1004800000D51C433460521C102AFFF43BAFBDE87A
:10049000F88F000044380240003001400000024064
:1004A0000004024000080240000C0240001002401C
:1004B0000014024000180240001C024000200240CC
:1004C00000240240003C01400069084000D00120A7
:1004D00070470AB1816170470904FBE701488068F1
:1004E0007047000000000020024881680278114433
:1004F00081607047000000200B4810B5016841F48E
:1005000000710160016841F480610160016841F49B
:1005100080710160032000F061F8002000F006F80F
:1005200000F024F8002010BD003C024070B50D4DD5
:1005300004464FF47A712878B1FBF0F00A49096853
:10054000B1FBF0F000F02CFB48B9102C07D20022D0
:100550002146501E00F022F800206C6070BD012082
:1005600070BD0000000000200C0000200A4808B503
:10057000016841F480410160006800F4804000900F
:100580000548001F016841F080510160006800F0DB
:100590008050009008BD000044380240F0B40E4B7B
:1005A0001B680C46C3F30223C3F10705042D00D9D1
:1005B0000425191D072901D2002300E0DB1E0126B6
:1005C00006FA05F1491E214099409E40761E1640CC
:1005D0003143F0BC00F0C5BC0CED00E0064900F072
:1005E000070208684FF6FF03184040EA0220034A5A
:1005F00010430860704700000CED00E00000FA05B1
:100600002DE9F8431748016841F080510160006806
:10061000154F00F08050012600903E64FFF75EFF0A
:1006200005464FF47A78114C05E000BFFFF756FFFE
:10063000401B40450DD86068C003F7D57E64FFF7C6
:100640004DFF0546464607E0FFF748FF401BB04216
:1006500002D90320BDE8F88360688003F4D5002048
:10066000F8E700004038024000000E4200700040F1
:100670002DE9F0470E46050065D0DFF81481D8F863
:100680000000F7B200F00F00B04207D288F8007007
:10069000D8F8000000F00F00B04254D128683D4C5B
:1006A000810712D5400703D5206840F4E050206050
:1006B0002878000703D5206840F460402060206857
:1006C000A96820F0F000084320602878C0072DD0EA
:1006D000304968680839012812D0022813D003284D
:1006E00011D00968890700292DDA216821F003015A
:1006F00001432160FFF7F2FE814641F2883A0EE0A5
:1007000009688903EFE709688901ECE7FFF7E6FE6E
:10071000A0EB0901514502D90320BDE8F08720680C
:10072000696800F00C00B0EB810FEFD1D8F8001031
:10073000404601F00F01B14207D90770006800F090
:100740000F00B04201D00120E7E72878400705D527
:100750002068E96820F4E05008432060287800070A
:1007600006D52068296920F4604040EAC100206075
:1007700000F038F82168084AC1F30311515CC84001
:100780000649086006480068FFF7D0FE0020C4E76D
:10079000003C024008380240341000080C000020E1
:1007A000040000200448054900680968044AC1F3B0
:1007B0008221515CC84070470C000020083802407C
:1007C000441000080448054900680968044AC1F358
:1007D0004231515CC84070470C000020083802408C
:1007E00044100008154810B5006810F00C021448B9
:1007F00013D04110042A0FD0082A0ED10F4C241F09
:100800002268236802F03F025B0207D52068C0F32C
:100810008810A0FB010106E0084610BD2168C1F365
:100820008811A1FB00010023FFF7DCFC2168C1F364
:100830000141491C4900B0FBF1F010BD08380240ED
:100840000024F4002DE9F84F04006ED02078DFF882
:100850003C93C007A9F104054AD009F104000168DE
:10086000C1F38101012908D00068C0F3810002288A
:100870000AD1D9F80000400206D52868800337D590
:1008800060680028E1D033E06068B0F5803F10D0A8
:10089000B0F5A02F286810D020F480302860286898
:1008A00020F4802028606068A8B1FFF717FE064694
:1008B0000DE0286840F48030F4E740F480202860A0
:1008C000F7E700BFFFF70AFE801B642873D828688B
:1008D0008003F7D50CE0FFF701FE064605E000BFF8
:1008E000FFF7FCFD801B6428F0D828688003F7D44C
:1008F0002078DFF89C8280074FF0000A3ED5A3489D
:10090000001D016811F00C0F08D00068C0F38100D1
:1009100002280BD1D9F80000400207D428688007CC
:1009200016D5E068012800D112E02BE1E068B8B1EB
:100930000120C8F80000FFF7D1FD064605E000BF22
:10094000FFF7CCFD801B0228C0D828688007F7D5A8
:100950002868216920F0F80040EAC10028600DE015
:10096000C8F800A0FFF7BAFD064604E0FFF7B6FDA1
:10097000801B02281FD828688007F7D4207800073A
:1009800022D5824E83486169703671B101210160C0
:10099000FFF7A4FD074604E0FFF7A0FDC01B0228F7
:1009A00009D830688007F7D50EE0C0F800A0FFF73F
:1009B00095FD074605E082E0FFF790FDC01B022889
:1009C0007DD830688007F7D42078400768D5DFF8F5
:1009D000BCB100270BF13C0BDBF80000C0000BD4CE
:1009E000DBF8001041F08051CBF80010DBF800007C
:1009F000012700F080500090674E3068C00510D489
:100A0000306840F480703060FFF768FD009005E0CA
:100A1000FFF764FD0099401A022850D83068C005DD
:100A2000F6D55A4EA0686C3601280FD005283068DC
:100A300010D020F001003060306820F004003060F9
:100A4000A068B8B1FFF74AFD00900FE0306840F0B1
:100A50000100F4E740F004003060F7E7FFF73EFDE7
:100A60000099411A41F28830814266D83068800787
:100A7000F4D50EE0FFF732FD009007E0FFF72EFD02
:100A80000099411A41F28830814256D83068800777
:100A9000F4D42FB1DBF8001021F08051CBF8001016
:100AA000A069C8B33949091D0968C1F38101022948
:100AB0004AD00228504607D0C8F8600000E03CE069
:100AC000FFF70CFD04463BE04746C8F86000FFF71F
:100AD00005FD064605E000BFFFF700FD801B02286C
:100AE0002BD828688001F7D4D4E907010843A16A0C
:100AF0002A4A490802EB0141626A41EA821108432D
:100B000094F82C1040EA0161C9F800100120386601
:100B1000FFF7E4FC044606E036E000BFFFF7DEFC2A
:100B2000001B022809D828688001F7D52CE000BFF7
:100B3000FFF7D4FC001B022802D90320BDE8F88F80
:100B400028688001F4D41FE00128F7D0D9F800000C
:100B5000E26900F48001914214D1226A00F03F0161
:100B600091420FD147F6C071626A0140914209D1AA
:100B7000A26A00F44031914204D1E16A00F0706051
:100B8000884201D00120D9E70020D7E7043802408D
:100B900000004742800E4742007000400000FFFF07
:100BA00010B5401EB0F1807F01D3012010BD4FF081
:100BB000E02460610F21601700F0D3F90020A061EC
:100BC00007202061002010BD70B5040004D094F807
:100BD0003900002510B106E0012070BD84F83850BE
:100BE000204600F023F8242084F839002068C168EA
:100BF00021F40051C160204600F01EF9206801690F
:100C000021F4904101612068416921F02A0141618C
:100C10002068C16841F40051C160E563202084F878
:100C2000390084F83A00002070BD0000F0B587B0AC
:100C3000044614216846FFF70DFB1F4F236800226E
:100C40001E490224032507261D48BB4213D11B4B16
:100C500014331F6847F010071F601B6803F0100370
:100C600005930B6843F001030B60096801F0010173
:100C70000591690215E0134FBB421AD10F4B103397
:100C80001F6847F400371F601B6803F400330593A7
:100C90000B6843F001030B60096801F00101059145
:100CA0000C21CDE9001402AB694683E86400FFF72C
:100CB00021FB07B0F0BD00000010014030380240B9
:100CC0000000024000440040FEE7000070B586B01E
:100CD00014216846FFF7BEFA22480024016841F05B
:100CE00004010160016801F004010591016841F00F
:100CF00080010160016801F080010591016841F007
:100D000001010160016801F001010591016841F0F4
:100D100008010160016801F008010591016841F0D6
:100D2000400101600068104E00F040004FF4005593
:100D30000590002229463046FFF7CBFBE810CDE9AD
:100D40000004694609480294FFF7D4FA012000958F
:100D5000CDE90104694630460394FFF7CBFA06B0AB
:100D600070BD00003038024000180240000C024004
:100D7000FEE7FEE770477047FFF7B6BB30B593B0AC
:100D800030216846FFF766FA14210CA8FFF762FAD3
:100D900020480025016841F080510160006800F0A2
:100DA000805011901C48016841F440410160006886
:100DB000022400F440401190012000904FF4A02044
:100DC00001906005CDE9064004200890B420CDE9EB
:100DD000090403200B906846FFF734FD08B172B692
:100DE000FEE7FFF70DFC08B172B6FEE70CA90F2075
:100DF00081E831004FF4A0500F904FF480501090D4
:100E000005210CA8FFF734FC002801D072B6FEE7DC
:100E100013B030BD40380240007000400548016802
:100E200041F47001016003494FF0006080390860AF
:100E30007047000088ED00E02DE9F04104460068AD
:100E40000169E26821F44051114301612169A06800
:100E5000E26908436169114308432168CA6849F29D
:100E60000C639A430243CA6020684169A26921F475
:100E7000407111434161E069192764253226B0F5BC
:100E8000004F354A354920684FF0000806D08842A7
:100E900001D0904236D1FFF795FC35E0884201D071
:100EA000904202D1FFF78EFC01E0FFF77BFC616806
:100EB0004A18A0FB070148EB0803FFF793F9014626
:100EC000B0FBF5F00201B1FBF5F06FF018035843E9
:100ED00001EB800006EBC000B0FBF5F000F0F8007D
:100EE00002EB4002B1FBF5F0584301EB800006EB4A
:100EF000C000B0FBF5F000F00700216810448860E6
:100F0000BDE8F081FFF74EFC61688B0F8A00A0FB03
:100F10000701FFF767F90146B0FBF5F06FF0180223
:100F2000504301EB800006EB0010B0FBF5F000F041
:100F3000F002B1FBF5F002EB0012B1FBF5F06FF03F
:100F40001803584301EB800006EB0010B0FBF5F0EE
:100F500000F00F00D1E70000001401400010014034
:100F6000FEE70907090E002804DB00F1E02080F805
:100F70000014704700F00F0000F1E02080F8141D0D
:100F8000704702E008C8121F08C1002AFAD1704752
:100F90007047002001E001C1121F002AFBD17047F9
:100FA000FFF7AAFAFFF7EAFEFFF790FE1D481C497B
:100FB0004FF4E13500240160C0E901540C26C460FF
:100FC000C0E904468461C461FFF7FEFD08B172B652
:100FD000FEE71448144940300160C0E90154C46080
:100FE000C0E904468461C461FFF7EEFD0F4D4FF484
:100FF000005408B172B6FEE70D4F4FF480663146DB
:101000003846FFF761FA40B1012221462846FFF732
:1010100060FA0120FFF75CF9F1E70022F5E7000034
:101020000010014010000020004400400018024061
:10103000000C024000000000000000000102030458
:101040000607080900000000010203046C100008F4
:101050000000002010000000820F00087C10000833
:101060001000002080040000920F00080100000022
:0C10700010000000000000000024F4004C
:04000005080001AD41
:00000001FF
